{
  "abi": [
    {
      "anonymous": false,
      "inputs": [
        {
          "indexed": true,
          "internalType": "address",
          "name": "previousOwner",
          "type": "address"
        },
        {
          "indexed": true,
          "internalType": "address",
          "name": "newOwner",
          "type": "address"
        }
      ],
      "name": "OwnershipTransferred",
      "type": "event"
    },
    {
      "inputs": [
        {
          "internalType": "uint256",
          "name": "",
          "type": "uint256"
        }
      ],
      "name": "collections",
      "outputs": [
        {
          "internalType": "address",
          "name": "",
          "type": "address"
        }
      ],
      "stateMutability": "view",
      "type": "function"
    },
    {
      "inputs": [
        {
          "internalType": "string",
          "name": "name_",
          "type": "string"
        },
        {
          "internalType": "string",
          "name": "symbol_",
          "type": "string"
        },
        {
          "internalType": "address[]",
          "name": "house",
          "type": "address[]"
        },
        {
          "internalType": "uint256[]",
          "name": "division",
          "type": "uint256[]"
        },
        {
          "internalType": "uint96",
          "name": "royalty",
          "type": "uint96"
        },
        {
          "internalType": "uint256",
          "name": "supply",
          "type": "uint256"
        }
      ],
      "name": "launch",
      "outputs": [],
      "stateMutability": "nonpayable",
      "type": "function"
    },
    {
      "inputs": [],
      "name": "owner",
      "outputs": [
        {
          "internalType": "address",
          "name": "",
          "type": "address"
        }
      ],
      "stateMutability": "view",
      "type": "function"
    },
    {
      "inputs": [],
      "name": "renounceOwnership",
      "outputs": [],
      "stateMutability": "nonpayable",
      "type": "function"
    },
    {
      "inputs": [
        {
          "internalType": "address",
          "name": "newOwner",
          "type": "address"
        }
      ],
      "name": "transferOwnership",
      "outputs": [],
      "stateMutability": "nonpayable",
      "type": "function"
    }
  ],
  "bytecode": {
    "object": "0x608060405234801561001057600080fd5b5061001a3361001f565b61006f565b600080546001600160a01b038381166001600160a01b0319831681178455604051919092169283917f8be0079c531659141344cd1fd0a4f28419497f9722a3daafe3b4186f6b6457e09190a35050565b613c2d8061007e6000396000f3fe60806040523480156200001157600080fd5b50600436106200005e5760003560e01c8063715018a614620000635780638da5cb5b146200006f578063f2fde38b1462000098578063f516c31914620000af578063fdbda0ec14620000c6575b600080fd5b6200006d620000dd565b005b6000546001600160a01b03165b6040516001600160a01b03909116815260200160405180910390f35b6200006d620000a936600462000303565b620000f5565b6200006d620000c03660046200050b565b62000178565b6200007c620000d7366004620005e0565b62000201565b620000e76200022c565b620000f3600062000288565b565b620000ff6200022c565b6001600160a01b0381166200016a5760405162461bcd60e51b815260206004820152602660248201527f4f776e61626c653a206e6577206f776e657220697320746865207a65726f206160448201526564647265737360d01b60648201526084015b60405180910390fd5b620001758162000288565b50565b620001826200022c565b60018686868686866040516200019890620002d8565b620001a99695949392919062000687565b604051809103906000f080158015620001c6573d6000803e3d6000fd5b5081546001810183556000928352602090922090910180546001600160a01b0319166001600160a01b03909216919091179055505050505050565b600181815481106200021257600080fd5b6000918252602090912001546001600160a01b0316905081565b6000546001600160a01b03163314620000f35760405162461bcd60e51b815260206004820181905260248201527f4f776e61626c653a2063616c6c6572206973206e6f7420746865206f776e6572604482015260640162000161565b600080546001600160a01b038381166001600160a01b0319831681178455604051919092169283917f8be0079c531659141344cd1fd0a4f28419497f9722a3daafe3b4186f6b6457e09190a35050565b6134bf806200073983390190565b80356001600160a01b0381168114620002fe57600080fd5b919050565b6000602082840312156200031657600080fd5b6200032182620002e6565b9392505050565b634e487b7160e01b600052604160045260246000fd5b604051601f8201601f1916810167ffffffffffffffff811182821017156200036a576200036a62000328565b604052919050565b600082601f8301126200038457600080fd5b813567ffffffffffffffff811115620003a157620003a162000328565b620003b6601f8201601f19166020016200033e565b818152846020838601011115620003cc57600080fd5b816020850160208301376000918101602001919091529392505050565b600067ffffffffffffffff82111562000406576200040662000328565b5060051b60200190565b600082601f8301126200042257600080fd5b813560206200043b6200043583620003e9565b6200033e565b82815260059290921b840181019181810190868411156200045b57600080fd5b8286015b8481101562000481576200047381620002e6565b83529183019183016200045f565b509695505050505050565b600082601f8301126200049e57600080fd5b81356020620004b16200043583620003e9565b82815260059290921b84018101918181019086841115620004d157600080fd5b8286015b84811015620004815780358352918301918301620004d5565b80356bffffffffffffffffffffffff81168114620002fe57600080fd5b60008060008060008060c087890312156200052557600080fd5b863567ffffffffffffffff808211156200053e57600080fd5b6200054c8a838b0162000372565b975060208901359150808211156200056357600080fd5b620005718a838b0162000372565b965060408901359150808211156200058857600080fd5b620005968a838b0162000410565b95506060890135915080821115620005ad57600080fd5b50620005bc89828a016200048c565b935050620005cd60808801620004ee565b915060a087013590509295509295509295565b600060208284031215620005f357600080fd5b5035919050565b6000815180845260005b81811015620006225760208185018101518683018201520162000604565b8181111562000635576000602083870101525b50601f01601f19169290920160200192915050565b600081518084526020808501945080840160005b838110156200067c578151875295820195908201906001016200065e565b509495945050505050565b60c0815260006200069c60c0830189620005fa565b602083820381850152620006b1828a620005fa565b84810360408601528851808252828a0193509082019060005b81811015620006f15784516001600160a01b031683529383019391830191600101620006ca565b505084810360608601526200070781896200064a565b93505050506200072760808301856bffffffffffffffffffffffff169052565b8260a083015297965050505050505056fe60806040526706f05b59d3b200006017553480156200001d57600080fd5b50604051620034bf380380620034bf833981016040819052620000409162000710565b838387876200004f33620001c4565b60016200005d838262000873565b5060026200006c828262000873565b5050508051825114620000e15760405162461bcd60e51b815260206004820152603260248201527f5061796d656e7453706c69747465723a2070617965657320616e6420736861726044820152710cae640d8cadccee8d040dad2e6dac2e8c6d60731b60648201526084015b60405180910390fd5b6000825111620001345760405162461bcd60e51b815260206004820152601a60248201527f5061796d656e7453706c69747465723a206e6f207061796565730000000000006044820152606401620000d8565b60005b8251811015620001a0576200018b8382815181106200015a576200015a6200093f565b60200260200101518383815181106200017757620001776200093f565b60200260200101516200021460201b60201c565b8062000197816200096b565b91505062000137565b505050620001b530836200040260201b60201c565b60185550620009a29350505050565b600080546001600160a01b038381166001600160a01b0319831681178455604051919092169283917f8be0079c531659141344cd1fd0a4f28419497f9722a3daafe3b4186f6b6457e09190a35050565b6001600160a01b038216620002815760405162461bcd60e51b815260206004820152602c60248201527f5061796d656e7453706c69747465723a206163636f756e74206973207468652060448201526b7a65726f206164647265737360a01b6064820152608401620000d8565b60008111620002d35760405162461bcd60e51b815260206004820152601d60248201527f5061796d656e7453706c69747465723a207368617265732061726520300000006044820152606401620000d8565b6001600160a01b038216600090815260106020526040902054156200034f5760405162461bcd60e51b815260206004820152602b60248201527f5061796d656e7453706c69747465723a206163636f756e7420616c726561647960448201526a206861732073686172657360a81b6064820152608401620000d8565b60128054600181019091557fbb8a6a4669ba250d26cd7a459eca9d215f8307e33aebe50379bc5a3617ec34440180546001600160a01b0319166001600160a01b0384169081179091556000908152601060205260409020819055600e54620003b990829062000987565b600e55604080516001600160a01b0384168152602081018390527f40c340f65e17194d14ddddb073d3c9f888e3cb52b5aae0c6c7706b4fbc905fac910160405180910390a15050565b6127106001600160601b0382161115620004725760405162461bcd60e51b815260206004820152602a60248201527f455243323938313a20726f79616c7479206665652077696c6c206578636565646044820152692073616c65507269636560b01b6064820152608401620000d8565b6001600160a01b038216620004ca5760405162461bcd60e51b815260206004820152601960248201527f455243323938313a20696e76616c6964207265636569766572000000000000006044820152606401620000d8565b604080518082019091526001600160a01b039092168083526001600160601b039091166020909201829052600160a01b90910217600c55565b634e487b7160e01b600052604160045260246000fd5b604051601f8201601f191681016001600160401b038111828210171562000544576200054462000503565b604052919050565b600082601f8301126200055e57600080fd5b81516001600160401b038111156200057a576200057a62000503565b602062000590601f8301601f1916820162000519565b8281528582848701011115620005a557600080fd5b60005b83811015620005c5578581018301518282018401528201620005a8565b83811115620005d75760008385840101525b5095945050505050565b60006001600160401b03821115620005fd57620005fd62000503565b5060051b60200190565b600082601f8301126200061957600080fd5b81516020620006326200062c83620005e1565b62000519565b82815260059290921b840181019181810190868411156200065257600080fd5b8286015b84811015620006865780516001600160a01b0381168114620006785760008081fd5b835291830191830162000656565b509695505050505050565b600082601f830112620006a357600080fd5b81516020620006b66200062c83620005e1565b82815260059290921b84018101918181019086841115620006d657600080fd5b8286015b84811015620006865780518352918301918301620006da565b80516001600160601b03811681146200070b57600080fd5b919050565b60008060008060008060c087890312156200072a57600080fd5b86516001600160401b03808211156200074257600080fd5b620007508a838b016200054c565b975060208901519150808211156200076757600080fd5b620007758a838b016200054c565b965060408901519150808211156200078c57600080fd5b6200079a8a838b0162000607565b95506060890151915080821115620007b157600080fd5b50620007c089828a0162000691565b935050620007d160808801620006f3565b915060a087015190509295509295509295565b600181811c90821680620007f957607f821691505b6020821081036200081a57634e487b7160e01b600052602260045260246000fd5b50919050565b601f8211156200086e57600081815260208120601f850160051c81016020861015620008495750805b601f850160051c820191505b818110156200086a5782815560010162000855565b5050505b505050565b81516001600160401b038111156200088f576200088f62000503565b620008a781620008a08454620007e4565b8462000820565b602080601f831160018114620008df5760008415620008c65750858301515b600019600386901b1c1916600185901b1785556200086a565b600085815260208120601f198616915b828110156200091057888601518255948401946001909101908401620008ef565b50858210156200092f5787850151600019600388901b60f8161c191681555b5050505050600190811b01905550565b634e487b7160e01b600052603260045260246000fd5b634e487b7160e01b600052601160045260246000fd5b60006001820162000980576200098062000955565b5060010190565b600082198211156200099d576200099d62000955565b500190565b612b0d80620009b26000396000f3fe6080604052600436106102295760003560e01c80636817c76c11610123578063a3f8eace116100ab578063d79779b21161006f578063d79779b2146106eb578063e33b7de314610721578063e985e9c514610736578063f2fde38b1461077f578063f4a0a5281461079f57600080fd5b8063a3f8eace14610635578063b88d4fde14610655578063c45ac05014610675578063c87b56dd14610695578063ce7c2ac2146106b557600080fd5b80638da5cb5b116100f25780638da5cb5b1461058e57806395d89b41146105ac5780639852595c146105c15780639e69fe24146105f7578063a22cb4651461061557600080fd5b80636817c76c1461052357806370a0823114610539578063715018a6146105595780638b83209b1461056e57600080fd5b806323b872dd116101b157806342842e0e1161017557806342842e0e1461048357806348b75044146104a35780634f6ccce7146104c357806355f804b3146104e35780636352211e1461050357600080fd5b806323b872dd146103a95780632a55205a146103c95780632f745c59146104085780633a98ef3914610428578063406072a91461043d57600080fd5b8063095ea7b3116101f8578063095ea7b31461032a5780631249c58b1461034c578063162094c41461035457806318160ddd14610374578063191655871461038957600080fd5b806301ffc9a714610277578063047fc9aa146102ac57806306fdde03146102d0578063081812fc146102f257600080fd5b36610272577f6ef95f06320e7a25a04a175ca677b7052bdd97131872c2192525a629f51be77033604080516001600160a01b0390921682523460208301520160405180910390a1005b600080fd5b34801561028357600080fd5b5061029761029236600461231d565b6107bf565b60405190151581526020015b60405180910390f35b3480156102b857600080fd5b506102c260185481565b6040519081526020016102a3565b3480156102dc57600080fd5b506102e56107d0565b6040516102a39190612392565b3480156102fe57600080fd5b5061031261030d3660046123a5565b610862565b6040516001600160a01b0390911681526020016102a3565b34801561033657600080fd5b5061034a6103453660046123d3565b610889565b005b61034a6109a3565b34801561036057600080fd5b5061034a61036f3660046124ab565b610a49565b34801561038057600080fd5b50600a546102c2565b34801561039557600080fd5b5061034a6103a43660046124f2565b610ace565b3480156103b557600080fd5b5061034a6103c436600461250f565b610bb5565b3480156103d557600080fd5b506103e96103e4366004612550565b610be6565b604080516001600160a01b0390931683526020830191909152016102a3565b34801561041457600080fd5b506102c26104233660046123d3565b610c92565b34801561043457600080fd5b50600e546102c2565b34801561044957600080fd5b506102c2610458366004612572565b6001600160a01b03918216600090815260146020908152604080832093909416825291909152205490565b34801561048f57600080fd5b5061034a61049e36600461250f565b610d28565b3480156104af57600080fd5b5061034a6104be366004612572565b610d43565b3480156104cf57600080fd5b506102c26104de3660046123a5565b610e54565b3480156104ef57600080fd5b5061034a6104fe3660046125ab565b610ee7565b34801561050f57600080fd5b5061031261051e3660046123a5565b610efb565b34801561052f57600080fd5b506102c260175481565b34801561054557600080fd5b506102c26105543660046124f2565b610f5b565b34801561056557600080fd5b5061034a610fe1565b34801561057a57600080fd5b506103126105893660046123a5565b610ff5565b34801561059a57600080fd5b506000546001600160a01b0316610312565b3480156105b857600080fd5b506102e5611025565b3480156105cd57600080fd5b506102c26105dc3660046124f2565b6001600160a01b031660009081526011602052604090205490565b34801561060357600080fd5b5061034a6106123660046123a5565b50565b34801561062157600080fd5b5061034a6106303660046125ee565b611034565b34801561064157600080fd5b506102c26106503660046124f2565b61103f565b34801561066157600080fd5b5061034a61067036600461261c565b611087565b34801561068157600080fd5b506102c2610690366004612572565b6110bf565b3480156106a157600080fd5b506102e56106b03660046123a5565b61118a565b3480156106c157600080fd5b506102c26106d03660046124f2565b6001600160a01b031660009081526010602052604090205490565b3480156106f757600080fd5b506102c26107063660046124f2565b6001600160a01b031660009081526013602052604090205490565b34801561072d57600080fd5b50600f546102c2565b34801561074257600080fd5b50610297610751366004612572565b6001600160a01b03918216600090815260066020908152604080832093909416825291909152205460ff1690565b34801561078b57600080fd5b5061034a61079a3660046124f2565b611195565b3480156107ab57600080fd5b5061034a6107ba3660046123a5565b61120b565b60006107ca82611218565b92915050565b6060600180546107df9061269c565b80601f016020809104026020016040519081016040528092919081815260200182805461080b9061269c565b80156108585780601f1061082d57610100808354040283529160200191610858565b820191906000526020600020905b81548152906001019060200180831161083b57829003601f168201915b5050505050905090565b600061086d8261123d565b506000908152600560205260409020546001600160a01b031690565b600061089482610efb565b9050806001600160a01b0316836001600160a01b0316036109065760405162461bcd60e51b815260206004820152602160248201527f4552433732313a20617070726f76616c20746f2063757272656e74206f776e656044820152603960f91b60648201526084015b60405180910390fd5b336001600160a01b038216148061092257506109228133610751565b6109945760405162461bcd60e51b815260206004820152603e60248201527f4552433732313a20617070726f76652063616c6c6572206973206e6f7420746f60448201527f6b656e206f776e6572206e6f7220617070726f76656420666f7220616c6c000060648201526084016108fd565b61099e838361129c565b505050565b6017543410156109e85760405162461bcd60e51b815260206004820152601060248201526f2737ba1032b737bab3b41032ba3432b960811b60448201526064016108fd565b60006109f3600a5490565b90506018548110610a3f5760405162461bcd60e51b815260206004820152601660248201527510dbdb1b1958dd1a5bdb881a5cc81cdbdb19081bdd5d60521b60448201526064016108fd565b610612338261130a565b610a51611458565b6018548210610ac05760188054906000610a6a836126ec565b91905055506018548210610ac05760405162461bcd60e51b815260206004820152601b60248201527f546f6b656e204944206973206f7574206f662073657175656e6365000000000060448201526064016108fd565b610aca82826114b2565b5050565b6001600160a01b038116600090815260106020526040902054610b035760405162461bcd60e51b81526004016108fd90612705565b6000610b0e8261103f565b905080600003610b305760405162461bcd60e51b81526004016108fd9061274b565b80600f6000828254610b429190612796565b90915550506001600160a01b0382166000908152601160205260409020805482019055610b6f8282611545565b604080516001600160a01b0384168152602081018390527fdf20fd1e76bc69d672e4814fafb2c449bba3a5369d8359adf9e05e6fde87b056910160405180910390a15050565b610bbf338261165e565b610bdb5760405162461bcd60e51b81526004016108fd906127ae565b61099e8383836116dc565b6000828152600d602090815260408083208151808301909252546001600160a01b038116808352600160a01b9091046001600160601b0316928201929092528291610c5b575060408051808201909152600c546001600160a01b0381168252600160a01b90046001600160601b031660208201525b602081015160009061271090610c7a906001600160601b0316876127fc565b610c849190612831565b915196919550909350505050565b6000610c9d83610f5b565b8210610cff5760405162461bcd60e51b815260206004820152602b60248201527f455243373231456e756d657261626c653a206f776e657220696e646578206f7560448201526a74206f6620626f756e647360a81b60648201526084016108fd565b506001600160a01b03919091166000908152600860209081526040808320938352929052205490565b61099e83838360405180602001604052806000815250611087565b6001600160a01b038116600090815260106020526040902054610d785760405162461bcd60e51b81526004016108fd90612705565b6000610d8483836110bf565b905080600003610da65760405162461bcd60e51b81526004016108fd9061274b565b6001600160a01b03831660009081526013602052604081208054839290610dce908490612796565b90915550506001600160a01b038084166000908152601460209081526040808320938616835292905220805482019055610e09838383611892565b604080516001600160a01b038481168252602082018490528516917f3be5b7a71e84ed12875d241991c70855ac5817d847039e17a9d895c1ceb0f18a910160405180910390a2505050565b6000610e5f600a5490565b8210610ec25760405162461bcd60e51b815260206004820152602c60248201527f455243373231456e756d657261626c653a20676c6f62616c20696e646578206f60448201526b7574206f6620626f756e647360a01b60648201526084016108fd565b600a8281548110610ed557610ed5612845565b90600052602060002001549050919050565b610eef611458565b6015610aca82826128a9565b6000818152600360205260408120546001600160a01b0316806107ca5760405162461bcd60e51b8152602060048201526018602482015277115490cdcc8c4e881a5b9d985b1a59081d1bdad95b88125160421b60448201526064016108fd565b60006001600160a01b038216610fc55760405162461bcd60e51b815260206004820152602960248201527f4552433732313a2061646472657373207a65726f206973206e6f7420612076616044820152683634b21037bbb732b960b91b60648201526084016108fd565b506001600160a01b031660009081526004602052604090205490565b610fe9611458565b610ff360006118e4565b565b60006012828154811061100a5761100a612845565b6000918252602090912001546001600160a01b031692915050565b6060600280546107df9061269c565b610aca338383611934565b60008061104b600f5490565b6110559047612796565b9050611080838261107b866001600160a01b031660009081526011602052604090205490565b611a02565b9392505050565b611091338361165e565b6110ad5760405162461bcd60e51b81526004016108fd906127ae565b6110b984848484611a40565b50505050565b6001600160a01b03821660009081526013602052604081205481906040516370a0823160e01b81523060048201526001600160a01b038616906370a0823190602401602060405180830381865afa15801561111e573d6000803e3d6000fd5b505050506040513d601f19601f820116820180604052508101906111429190612969565b61114c9190612796565b6001600160a01b038086166000908152601460209081526040808320938816835292905220549091506111829084908390611a02565b949350505050565b60606107ca82611a73565b61119d611458565b6001600160a01b0381166112025760405162461bcd60e51b815260206004820152602660248201527f4f776e61626c653a206e6577206f776e657220697320746865207a65726f206160448201526564647265737360d01b60648201526084016108fd565b610612816118e4565b611213611458565b601755565b60006001600160e01b0319821663152a902d60e11b14806107ca57506107ca82611b6e565b6000818152600360205260409020546001600160a01b03166106125760405162461bcd60e51b8152602060048201526018602482015277115490cdcc8c4e881a5b9d985b1a59081d1bdad95b88125160421b60448201526064016108fd565b600081815260056020526040902080546001600160a01b0319166001600160a01b03841690811790915581906112d182610efb565b6001600160a01b03167f8c5be1e5ebec7d5bd14f71427d1e84f3dd0314c0f7b2291e5b200ac8c7c3b92560405160405180910390a45050565b6001600160a01b0382166113605760405162461bcd60e51b815260206004820181905260248201527f4552433732313a206d696e7420746f20746865207a65726f206164647265737360448201526064016108fd565b6000818152600360205260409020546001600160a01b0316156113c55760405162461bcd60e51b815260206004820152601c60248201527f4552433732313a20746f6b656e20616c7265616479206d696e7465640000000060448201526064016108fd565b6113d160008383611b93565b6001600160a01b03821660009081526004602052604081208054600192906113fa908490612796565b909155505060008181526003602052604080822080546001600160a01b0319166001600160a01b03861690811790915590518392907fddf252ad1be2c89b69c2b068fc378daa952ba7f163c4a11628f55a4df523b3ef908290a45050565b6000546001600160a01b03163314610ff35760405162461bcd60e51b815260206004820181905260248201527f4f776e61626c653a2063616c6c6572206973206e6f7420746865206f776e657260448201526064016108fd565b6000828152600360205260409020546001600160a01b031661152d5760405162461bcd60e51b815260206004820152602e60248201527f45524337323155524953746f726167653a2055524920736574206f66206e6f6e60448201526d32bc34b9ba32b73a103a37b5b2b760911b60648201526084016108fd565b600082815260076020526040902061099e82826128a9565b804710156115955760405162461bcd60e51b815260206004820152601d60248201527f416464726573733a20696e73756666696369656e742062616c616e636500000060448201526064016108fd565b6000826001600160a01b03168260405160006040518083038185875af1925050503d80600081146115e2576040519150601f19603f3d011682016040523d82523d6000602084013e6115e7565b606091505b505090508061099e5760405162461bcd60e51b815260206004820152603a60248201527f416464726573733a20756e61626c6520746f2073656e642076616c75652c207260448201527f6563697069656e74206d6179206861766520726576657274656400000000000060648201526084016108fd565b60008061166a83610efb565b9050806001600160a01b0316846001600160a01b031614806116b157506001600160a01b0380821660009081526006602090815260408083209388168352929052205460ff165b806111825750836001600160a01b03166116ca84610862565b6001600160a01b031614949350505050565b826001600160a01b03166116ef82610efb565b6001600160a01b0316146117535760405162461bcd60e51b815260206004820152602560248201527f4552433732313a207472616e736665722066726f6d20696e636f72726563742060448201526437bbb732b960d91b60648201526084016108fd565b6001600160a01b0382166117b55760405162461bcd60e51b8152602060048201526024808201527f4552433732313a207472616e7366657220746f20746865207a65726f206164646044820152637265737360e01b60648201526084016108fd565b6117c0838383611b93565b600081815260056020908152604080832080546001600160a01b03191690556001600160a01b038616835260049091528120805460019290611803908490612982565b90915550506001600160a01b0382166000908152600460205260408120805460019290611831908490612796565b909155505060008181526003602052604080822080546001600160a01b0319166001600160a01b0386811691821790925591518493918716917fddf252ad1be2c89b69c2b068fc378daa952ba7f163c4a11628f55a4df523b3ef91a4505050565b604080516001600160a01b038416602482015260448082018490528251808303909101815260649091019091526020810180516001600160e01b031663a9059cbb60e01b17905261099e908490611b9e565b600080546001600160a01b038381166001600160a01b0319831681178455604051919092169283917f8be0079c531659141344cd1fd0a4f28419497f9722a3daafe3b4186f6b6457e09190a35050565b816001600160a01b0316836001600160a01b0316036119955760405162461bcd60e51b815260206004820152601960248201527f4552433732313a20617070726f766520746f2063616c6c65720000000000000060448201526064016108fd565b6001600160a01b03838116600081815260066020908152604080832094871680845294825291829020805460ff191686151590811790915591519182527f17307eab39ab6107e8899845ad3d59bd9653f200f220920489ca2b5937696c31910160405180910390a3505050565b600e546001600160a01b03841660009081526010602052604081205490918391611a2c90866127fc565b611a369190612831565b6111829190612982565b611a4b8484846116dc565b611a5784848484611c70565b6110b95760405162461bcd60e51b81526004016108fd90612999565b6060611a7e8261123d565b60008281526007602052604081208054611a979061269c565b80601f0160208091040260200160405190810160405280929190818152602001828054611ac39061269c565b8015611b105780601f10611ae557610100808354040283529160200191611b10565b820191906000526020600020905b815481529060010190602001808311611af357829003601f168201915b505050505090506000611b21611d71565b90508051600003611b33575092915050565b815115611b65578082604051602001611b4d9291906129eb565b60405160208183030381529060405292505050919050565b61118284611d80565b60006001600160e01b0319821663780e9d6360e01b14806107ca57506107ca82611de6565b61099e838383611e36565b6000611bf3826040518060400160405280602081526020017f5361666545524332303a206c6f772d6c6576656c2063616c6c206661696c6564815250856001600160a01b0316611eee9092919063ffffffff16565b80519091501561099e5780806020019051810190611c119190612a1a565b61099e5760405162461bcd60e51b815260206004820152602a60248201527f5361666545524332303a204552433230206f7065726174696f6e20646964206e6044820152691bdd081cdd58d8d9595960b21b60648201526084016108fd565b60006001600160a01b0384163b15611d6657604051630a85bd0160e11b81526001600160a01b0385169063150b7a0290611cb4903390899088908890600401612a37565b6020604051808303816000875af1925050508015611cef575060408051601f3d908101601f19168201909252611cec91810190612a74565b60015b611d4c573d808015611d1d576040519150601f19603f3d011682016040523d82523d6000602084013e611d22565b606091505b508051600003611d445760405162461bcd60e51b81526004016108fd90612999565b805181602001fd5b6001600160e01b031916630a85bd0160e11b149050611182565b506001949350505050565b6060601580546107df9061269c565b6060611d8b8261123d565b6000611d95611d71565b90506000815111611db55760405180602001604052806000815250611080565b80611dbf84611efd565b604051602001611dd09291906129eb565b6040516020818303038152906040529392505050565b60006001600160e01b031982166380ac58cd60e01b1480611e1757506001600160e01b03198216635b5e139f60e01b145b806107ca57506301ffc9a760e01b6001600160e01b03198316146107ca565b6001600160a01b038316611e9157611e8c81600a80546000838152600b60205260408120829055600182018355919091527fc65a7bb8d6351c1cf70c95a316cc6a92839c986682d98bc35f958f4883f9d2a80155565b611eb4565b816001600160a01b0316836001600160a01b031614611eb457611eb48382611ffe565b6001600160a01b038216611ecb5761099e8161209b565b826001600160a01b0316826001600160a01b03161461099e5761099e828261214a565b6060611182848460008561218e565b606081600003611f245750506040805180820190915260018152600360fc1b602082015290565b8160005b8115611f4e5780611f38816126ec565b9150611f479050600a83612831565b9150611f28565b60008167ffffffffffffffff811115611f6957611f696123ff565b6040519080825280601f01601f191660200182016040528015611f93576020820181803683370190505b5090505b841561118257611fa8600183612982565b9150611fb5600a86612a91565b611fc0906030612796565b60f81b818381518110611fd557611fd5612845565b60200101906001600160f81b031916908160001a905350611ff7600a86612831565b9450611f97565b6000600161200b84610f5b565b6120159190612982565b600083815260096020526040902054909150808214612068576001600160a01b03841660009081526008602090815260408083208584528252808320548484528184208190558352600990915290208190555b5060009182526009602090815260408084208490556001600160a01b039094168352600881528383209183525290812055565b600a546000906120ad90600190612982565b6000838152600b6020526040812054600a80549394509092849081106120d5576120d5612845565b9060005260206000200154905080600a83815481106120f6576120f6612845565b6000918252602080832090910192909255828152600b9091526040808220849055858252812055600a80548061212e5761212e612aa5565b6001900381819060005260206000200160009055905550505050565b600061215583610f5b565b6001600160a01b039093166000908152600860209081526040808320868452825280832085905593825260099052919091209190915550565b6060824710156121ef5760405162461bcd60e51b815260206004820152602660248201527f416464726573733a20696e73756666696369656e742062616c616e636520666f6044820152651c8818d85b1b60d21b60648201526084016108fd565b600080866001600160a01b0316858760405161220b9190612abb565b60006040518083038185875af1925050503d8060008114612248576040519150601f19603f3d011682016040523d82523d6000602084013e61224d565b606091505b509150915061225e87838387612269565b979650505050505050565b606083156122d85782516000036122d1576001600160a01b0385163b6122d15760405162461bcd60e51b815260206004820152601d60248201527f416464726573733a2063616c6c20746f206e6f6e2d636f6e747261637400000060448201526064016108fd565b5081611182565b61118283838151156122ed5781518083602001fd5b8060405162461bcd60e51b81526004016108fd9190612392565b6001600160e01b03198116811461061257600080fd5b60006020828403121561232f57600080fd5b813561108081612307565b60005b8381101561235557818101518382015260200161233d565b838111156110b95750506000910152565b6000815180845261237e81602086016020860161233a565b601f01601f19169290920160200192915050565b6020815260006110806020830184612366565b6000602082840312156123b757600080fd5b5035919050565b6001600160a01b038116811461061257600080fd5b600080604083850312156123e657600080fd5b82356123f1816123be565b946020939093013593505050565b634e487b7160e01b600052604160045260246000fd5b600067ffffffffffffffff80841115612430576124306123ff565b604051601f8501601f19908116603f01168101908282118183101715612458576124586123ff565b8160405280935085815286868601111561247157600080fd5b858560208301376000602087830101525050509392505050565b600082601f83011261249c57600080fd5b61108083833560208501612415565b600080604083850312156124be57600080fd5b82359150602083013567ffffffffffffffff8111156124dc57600080fd5b6124e88582860161248b565b9150509250929050565b60006020828403121561250457600080fd5b8135611080816123be565b60008060006060848603121561252457600080fd5b833561252f816123be565b9250602084013561253f816123be565b929592945050506040919091013590565b6000806040838503121561256357600080fd5b50508035926020909101359150565b6000806040838503121561258557600080fd5b8235612590816123be565b915060208301356125a0816123be565b809150509250929050565b6000602082840312156125bd57600080fd5b813567ffffffffffffffff8111156125d457600080fd5b6111828482850161248b565b801515811461061257600080fd5b6000806040838503121561260157600080fd5b823561260c816123be565b915060208301356125a0816125e0565b6000806000806080858703121561263257600080fd5b843561263d816123be565b9350602085013561264d816123be565b925060408501359150606085013567ffffffffffffffff81111561267057600080fd5b8501601f8101871361268157600080fd5b61269087823560208401612415565b91505092959194509250565b600181811c908216806126b057607f821691505b6020821081036126d057634e487b7160e01b600052602260045260246000fd5b50919050565b634e487b7160e01b600052601160045260246000fd5b6000600182016126fe576126fe6126d6565b5060010190565b60208082526026908201527f5061796d656e7453706c69747465723a206163636f756e7420686173206e6f2060408201526573686172657360d01b606082015260800190565b6020808252602b908201527f5061796d656e7453706c69747465723a206163636f756e74206973206e6f742060408201526a191d59481c185e5b595b9d60aa1b606082015260800190565b600082198211156127a9576127a96126d6565b500190565b6020808252602e908201527f4552433732313a2063616c6c6572206973206e6f7420746f6b656e206f776e6560408201526d1c881b9bdc88185c1c1c9bdd995960921b606082015260800190565b6000816000190483118215151615612816576128166126d6565b500290565b634e487b7160e01b600052601260045260246000fd5b6000826128405761284061281b565b500490565b634e487b7160e01b600052603260045260246000fd5b601f82111561099e57600081815260208120601f850160051c810160208610156128825750805b601f850160051c820191505b818110156128a15782815560010161288e565b505050505050565b815167ffffffffffffffff8111156128c3576128c36123ff565b6128d7816128d1845461269c565b8461285b565b602080601f83116001811461290c57600084156128f45750858301515b600019600386901b1c1916600185901b1785556128a1565b600085815260208120601f198616915b8281101561293b5788860151825594840194600190910190840161291c565b50858210156129595787850151600019600388901b60f8161c191681555b5050505050600190811b01905550565b60006020828403121561297b57600080fd5b5051919050565b600082821015612994576129946126d6565b500390565b60208082526032908201527f4552433732313a207472616e7366657220746f206e6f6e20455243373231526560408201527131b2b4bb32b91034b6b83632b6b2b73a32b960711b606082015260800190565b600083516129fd81846020880161233a565b835190830190612a1181836020880161233a565b01949350505050565b600060208284031215612a2c57600080fd5b8151611080816125e0565b6001600160a01b0385811682528416602082015260408101839052608060608201819052600090612a6a90830184612366565b9695505050505050565b600060208284031215612a8657600080fd5b815161108081612307565b600082612aa057612aa061281b565b500690565b634e487b7160e01b600052603160045260246000fd5b60008251612acd81846020870161233a565b919091019291505056fea2646970667358221220ca94a8dd4399bf5f1b433bcb9d86e358b3dcf9a2e7aaca7f500a3b7697775fe264736f6c634300080f0033a2646970667358221220c650e668e0cd21d6b975d35fc4d59257e136356a898336d6540ca985012dd99164736f6c634300080f0033",
    "linkReferences": {}
  },
  "methodIdentifiers": {
    "collections(uint256)": "fdbda0ec",
    "launch(string,string,address[],uint256[],uint96,uint256)": "f516c319",
    "owner()": "8da5cb5b",
    "renounceOwnership()": "715018a6",
    "transferOwnership(address)": "f2fde38b"
  },
  "id": 25
}