{
  "abi": [
    {
      "inputs": [],
      "stateMutability": "nonpayable",
      "type": "constructor"
    },
    {
      "anonymous": false,
      "inputs": [
        {
          "indexed": true,
          "internalType": "address",
          "name": "augieSet",
          "type": "address"
        }
      ],
      "name": "NewSet",
      "type": "event"
    },
    {
      "anonymous": false,
      "inputs": [
        {
          "indexed": true,
          "internalType": "address",
          "name": "previousOwner",
          "type": "address"
        },
        {
          "indexed": true,
          "internalType": "address",
          "name": "newOwner",
          "type": "address"
        }
      ],
      "name": "OwnershipTransferred",
      "type": "event"
    },
    {
      "inputs": [
        {
          "internalType": "string",
          "name": "name_",
          "type": "string"
        },
        {
          "internalType": "string",
          "name": "symbol_",
          "type": "string"
        }
      ],
      "name": "launchNewAugieSet",
      "outputs": [],
      "stateMutability": "nonpayable",
      "type": "function"
    },
    {
      "inputs": [],
      "name": "owner",
      "outputs": [
        {
          "internalType": "address",
          "name": "",
          "type": "address"
        }
      ],
      "stateMutability": "view",
      "type": "function"
    },
    {
      "inputs": [],
      "name": "renounceOwnership",
      "outputs": [],
      "stateMutability": "nonpayable",
      "type": "function"
    },
    {
      "inputs": [
        {
          "internalType": "address",
          "name": "newOwner",
          "type": "address"
        }
      ],
      "name": "transferOwnership",
      "outputs": [],
      "stateMutability": "nonpayable",
      "type": "function"
    }
  ],
  "bytecode": {
    "object": "0x608060405234801561001057600080fd5b5061001a3361001f565b61006f565b600080546001600160a01b038381166001600160a01b0319831681178455604051919092169283917f8be0079c531659141344cd1fd0a4f28419497f9722a3daafe3b4186f6b6457e09190a35050565b6119e28061007e6000396000f3fe608060405234801561001057600080fd5b506004361061004c5760003560e01c80631fc82e1e14610051578063715018a6146100665780638da5cb5b1461006e578063f2fde38b1461008d575b600080fd5b61006461005f366004610348565b6100a0565b005b61006461015c565b600054604080516001600160a01b039092168252519081900360200190f35b61006461009b3660046103ac565b610170565b6100a86101ee565b600082826040516100b890610298565b6100c3929190610429565b604051809103906000f0801580156100df573d6000803e3d6000fd5b5060018054808201825560009182527fb10e2d527612073b26eecdfd717e6a320cf44b4afac2b0732d9fcbe2b7fa0cf60180546001600160a01b0319166001600160a01b038416908117909155604051929350917fa38fc0d81455cef6bd7a8180e3fbdcd0c044566d7b54e1c5b4dbc3784a6bcc659190a2505050565b6101646101ee565b61016e6000610248565b565b6101786101ee565b6001600160a01b0381166101e25760405162461bcd60e51b815260206004820152602660248201527f4f776e61626c653a206e6577206f776e657220697320746865207a65726f206160448201526564647265737360d01b60648201526084015b60405180910390fd5b6101eb81610248565b50565b6000546001600160a01b0316331461016e5760405162461bcd60e51b815260206004820181905260248201527f4f776e61626c653a2063616c6c6572206973206e6f7420746865206f776e657260448201526064016101d9565b600080546001600160a01b038381166001600160a01b0319831681178455604051919092169283917f8be0079c531659141344cd1fd0a4f28419497f9722a3daafe3b4186f6b6457e09190a35050565b6115558061045883390190565b634e487b7160e01b600052604160045260246000fd5b600082601f8301126102cc57600080fd5b813567ffffffffffffffff808211156102e7576102e76102a5565b604051601f8301601f19908116603f0116810190828211818310171561030f5761030f6102a5565b8160405283815286602085880101111561032857600080fd5b836020870160208301376000602085830101528094505050505092915050565b6000806040838503121561035b57600080fd5b823567ffffffffffffffff8082111561037357600080fd5b61037f868387016102bb565b9350602085013591508082111561039557600080fd5b506103a2858286016102bb565b9150509250929050565b6000602082840312156103be57600080fd5b81356001600160a01b03811681146103d557600080fd5b9392505050565b6000815180845260005b81811015610402576020818501810151868301820152016103e6565b81811115610414576000602083870101525b50601f01601f19169290920160200192915050565b60408152600061043c60408301856103dc565b828103602084015261044e81856103dc565b9594505050505056fe60806040523480156200001157600080fd5b50604051620015553803806200155583398101604081905262000034916200012b565b8181600062000044838262000224565b50600162000053828262000224565b5050505050620002f0565b634e487b7160e01b600052604160045260246000fd5b600082601f8301126200008657600080fd5b81516001600160401b0380821115620000a357620000a36200005e565b604051601f8301601f19908116603f01168101908282118183101715620000ce57620000ce6200005e565b81604052838152602092508683858801011115620000eb57600080fd5b600091505b838210156200010f5785820183015181830184015290820190620000f0565b83821115620001215760008385830101525b9695505050505050565b600080604083850312156200013f57600080fd5b82516001600160401b03808211156200015757600080fd5b620001658683870162000074565b935060208501519150808211156200017c57600080fd5b506200018b8582860162000074565b9150509250929050565b600181811c90821680620001aa57607f821691505b602082108103620001cb57634e487b7160e01b600052602260045260246000fd5b50919050565b601f8211156200021f57600081815260208120601f850160051c81016020861015620001fa5750805b601f850160051c820191505b818110156200021b5782815560010162000206565b5050505b505050565b81516001600160401b038111156200024057620002406200005e565b620002588162000251845462000195565b84620001d1565b602080601f831160018114620002905760008415620002775750858301515b600019600386901b1c1916600185901b1785556200021b565b600085815260208120601f198616915b82811015620002c157888601518255948401946001909101908401620002a0565b5085821015620002e05787850151600019600388901b60f8161c191681555b5050505050600190811b01905550565b61125580620003006000396000f3fe608060405234801561001057600080fd5b50600436106100cf5760003560e01c80636352211e1161008c578063a22cb46511610066578063a22cb465146101b3578063b88d4fde146101c6578063c87b56dd146101d9578063e985e9c5146101ec57600080fd5b80636352211e1461017757806370a082311461018a57806395d89b41146101ab57600080fd5b806301ffc9a7146100d457806306fdde03146100fc578063081812fc14610111578063095ea7b31461013c57806323b872dd1461015157806342842e0e14610164575b600080fd5b6100e76100e2366004610d6b565b610228565b60405190151581526020015b60405180910390f35b61010461027a565b6040516100f39190610de0565b61012461011f366004610df3565b61030c565b6040516001600160a01b0390911681526020016100f3565b61014f61014a366004610e28565b610333565b005b61014f61015f366004610e52565b61044d565b61014f610172366004610e52565b61047e565b610124610185366004610df3565b610499565b61019d610198366004610e8e565b6104f9565b6040519081526020016100f3565b61010461057f565b61014f6101c1366004610ea9565b61058e565b61014f6101d4366004610efb565b61059d565b6101046101e7366004610df3565b6105d5565b6100e76101fa366004610fd7565b6001600160a01b03918216600090815260056020908152604080832093909416825291909152205460ff1690565b60006001600160e01b031982166380ac58cd60e01b148061025957506001600160e01b03198216635b5e139f60e01b145b8061027457506301ffc9a760e01b6001600160e01b03198316145b92915050565b6060600080546102899061100a565b80601f01602080910402602001604051908101604052809291908181526020018280546102b59061100a565b80156103025780601f106102d757610100808354040283529160200191610302565b820191906000526020600020905b8154815290600101906020018083116102e557829003601f168201915b5050505050905090565b6000610317826106e5565b506000908152600460205260409020546001600160a01b031690565b600061033e82610499565b9050806001600160a01b0316836001600160a01b0316036103b05760405162461bcd60e51b815260206004820152602160248201527f4552433732313a20617070726f76616c20746f2063757272656e74206f776e656044820152603960f91b60648201526084015b60405180910390fd5b336001600160a01b03821614806103cc57506103cc81336101fa565b61043e5760405162461bcd60e51b815260206004820152603e60248201527f4552433732313a20617070726f76652063616c6c6572206973206e6f7420746f60448201527f6b656e206f776e6572206e6f7220617070726f76656420666f7220616c6c000060648201526084016103a7565b6104488383610747565b505050565b61045733826107b5565b6104735760405162461bcd60e51b81526004016103a790611044565b610448838383610833565b6104488383836040518060200160405280600081525061059d565b6000818152600260205260408120546001600160a01b0316806102745760405162461bcd60e51b8152602060048201526018602482015277115490cdcc8c4e881a5b9d985b1a59081d1bdad95b88125160421b60448201526064016103a7565b60006001600160a01b0382166105635760405162461bcd60e51b815260206004820152602960248201527f4552433732313a2061646472657373207a65726f206973206e6f7420612076616044820152683634b21037bbb732b960b91b60648201526084016103a7565b506001600160a01b031660009081526003602052604090205490565b6060600180546102899061100a565b6105993383836109de565b5050565b6105a733836107b5565b6105c35760405162461bcd60e51b81526004016103a790611044565b6105cf84848484610aac565b50505050565b60606105e0826106e5565b600082815260066020526040812080546105f99061100a565b80601f01602080910402602001604051908101604052809291908181526020018280546106259061100a565b80156106725780601f1061064757610100808354040283529160200191610672565b820191906000526020600020905b81548152906001019060200180831161065557829003601f168201915b50505050509050600061069060408051602081019091526000815290565b905080516000036106a2575092915050565b8151156106d45780826040516020016106bc929190611092565b60405160208183030381529060405292505050919050565b6106dd84610adf565b949350505050565b6000818152600260205260409020546001600160a01b03166107445760405162461bcd60e51b8152602060048201526018602482015277115490cdcc8c4e881a5b9d985b1a59081d1bdad95b88125160421b60448201526064016103a7565b50565b600081815260046020526040902080546001600160a01b0319166001600160a01b038416908117909155819061077c82610499565b6001600160a01b03167f8c5be1e5ebec7d5bd14f71427d1e84f3dd0314c0f7b2291e5b200ac8c7c3b92560405160405180910390a45050565b6000806107c183610499565b9050806001600160a01b0316846001600160a01b0316148061080857506001600160a01b0380821660009081526005602090815260408083209388168352929052205460ff165b806106dd5750836001600160a01b03166108218461030c565b6001600160a01b031614949350505050565b826001600160a01b031661084682610499565b6001600160a01b0316146108aa5760405162461bcd60e51b815260206004820152602560248201527f4552433732313a207472616e736665722066726f6d20696e636f72726563742060448201526437bbb732b960d91b60648201526084016103a7565b6001600160a01b03821661090c5760405162461bcd60e51b8152602060048201526024808201527f4552433732313a207472616e7366657220746f20746865207a65726f206164646044820152637265737360e01b60648201526084016103a7565b600081815260046020908152604080832080546001600160a01b03191690556001600160a01b03861683526003909152812080546001929061094f9084906110d7565b90915550506001600160a01b038216600090815260036020526040812080546001929061097d9084906110ee565b909155505060008181526002602052604080822080546001600160a01b0319166001600160a01b0386811691821790925591518493918716917fddf252ad1be2c89b69c2b068fc378daa952ba7f163c4a11628f55a4df523b3ef91a4505050565b816001600160a01b0316836001600160a01b031603610a3f5760405162461bcd60e51b815260206004820152601960248201527f4552433732313a20617070726f766520746f2063616c6c65720000000000000060448201526064016103a7565b6001600160a01b03838116600081815260056020908152604080832094871680845294825291829020805460ff191686151590811790915591519182527f17307eab39ab6107e8899845ad3d59bd9653f200f220920489ca2b5937696c31910160405180910390a3505050565b610ab7848484610833565b610ac384848484610b53565b6105cf5760405162461bcd60e51b81526004016103a790611106565b6060610aea826106e5565b6000610b0160408051602081019091526000815290565b90506000815111610b215760405180602001604052806000815250610b4c565b80610b2b84610c54565b604051602001610b3c929190611092565b6040516020818303038152906040525b9392505050565b60006001600160a01b0384163b15610c4957604051630a85bd0160e11b81526001600160a01b0385169063150b7a0290610b97903390899088908890600401611158565b6020604051808303816000875af1925050508015610bd2575060408051601f3d908101601f19168201909252610bcf91810190611195565b60015b610c2f573d808015610c00576040519150601f19603f3d011682016040523d82523d6000602084013e610c05565b606091505b508051600003610c275760405162461bcd60e51b81526004016103a790611106565b805181602001fd5b6001600160e01b031916630a85bd0160e11b1490506106dd565b506001949350505050565b606081600003610c7b5750506040805180820190915260018152600360fc1b602082015290565b8160005b8115610ca55780610c8f816111b2565b9150610c9e9050600a836111e1565b9150610c7f565b60008167ffffffffffffffff811115610cc057610cc0610ee5565b6040519080825280601f01601f191660200182016040528015610cea576020820181803683370190505b5090505b84156106dd57610cff6001836110d7565b9150610d0c600a866111f5565b610d179060306110ee565b60f81b818381518110610d2c57610d2c611209565b60200101906001600160f81b031916908160001a905350610d4e600a866111e1565b9450610cee565b6001600160e01b03198116811461074457600080fd5b600060208284031215610d7d57600080fd5b8135610b4c81610d55565b60005b83811015610da3578181015183820152602001610d8b565b838111156105cf5750506000910152565b60008151808452610dcc816020860160208601610d88565b601f01601f19169290920160200192915050565b602081526000610b4c6020830184610db4565b600060208284031215610e0557600080fd5b5035919050565b80356001600160a01b0381168114610e2357600080fd5b919050565b60008060408385031215610e3b57600080fd5b610e4483610e0c565b946020939093013593505050565b600080600060608486031215610e6757600080fd5b610e7084610e0c565b9250610e7e60208501610e0c565b9150604084013590509250925092565b600060208284031215610ea057600080fd5b610b4c82610e0c565b60008060408385031215610ebc57600080fd5b610ec583610e0c565b915060208301358015158114610eda57600080fd5b809150509250929050565b634e487b7160e01b600052604160045260246000fd5b60008060008060808587031215610f1157600080fd5b610f1a85610e0c565b9350610f2860208601610e0c565b925060408501359150606085013567ffffffffffffffff80821115610f4c57600080fd5b818701915087601f830112610f6057600080fd5b813581811115610f7257610f72610ee5565b604051601f8201601f19908116603f01168101908382118183101715610f9a57610f9a610ee5565b816040528281528a6020848701011115610fb357600080fd5b82602086016020830137600060208483010152809550505050505092959194509250565b60008060408385031215610fea57600080fd5b610ff383610e0c565b915061100160208401610e0c565b90509250929050565b600181811c9082168061101e57607f821691505b60208210810361103e57634e487b7160e01b600052602260045260246000fd5b50919050565b6020808252602e908201527f4552433732313a2063616c6c6572206973206e6f7420746f6b656e206f776e6560408201526d1c881b9bdc88185c1c1c9bdd995960921b606082015260800190565b600083516110a4818460208801610d88565b8351908301906110b8818360208801610d88565b01949350505050565b634e487b7160e01b600052601160045260246000fd5b6000828210156110e9576110e96110c1565b500390565b60008219821115611101576111016110c1565b500190565b60208082526032908201527f4552433732313a207472616e7366657220746f206e6f6e20455243373231526560408201527131b2b4bb32b91034b6b83632b6b2b73a32b960711b606082015260800190565b6001600160a01b038581168252841660208201526040810183905260806060820181905260009061118b90830184610db4565b9695505050505050565b6000602082840312156111a757600080fd5b8151610b4c81610d55565b6000600182016111c4576111c46110c1565b5060010190565b634e487b7160e01b600052601260045260246000fd5b6000826111f0576111f06111cb565b500490565b600082611204576112046111cb565b500690565b634e487b7160e01b600052603260045260246000fdfea2646970667358221220e3fb28f44061284f2b9de98b3a2b958beb8f89f7c47de99ceb00198bbad1bb7564736f6c634300080f0033a264697066735822122024664de507665f411f6f4fd44f2b2a4ab80fc2aebbfff8eef82aa751273073a464736f6c634300080f0033",
    "linkReferences": {}
  },
  "methodIdentifiers": {
    "launchNewAugieSet(string,string)": "1fc82e1e",
    "owner()": "8da5cb5b",
    "renounceOwnership()": "715018a6",
    "transferOwnership(address)": "f2fde38b"
  },
  "id": 17
}